{
  "contractName": "Transactions",
  "abi": [
    {
      "inputs": [],
      "name": "idCounter",
      "outputs": [
        {
          "internalType": "uint256",
          "name": "",
          "type": "uint256"
        }
      ],
      "stateMutability": "view",
      "type": "function",
      "constant": true
    },
    {
      "inputs": [
        {
          "internalType": "uint256",
          "name": "",
          "type": "uint256"
        }
      ],
      "name": "transactions",
      "outputs": [
        {
          "internalType": "uint256",
          "name": "id",
          "type": "uint256"
        },
        {
          "internalType": "uint256",
          "name": "date",
          "type": "uint256"
        },
        {
          "internalType": "string",
          "name": "buyer",
          "type": "string"
        },
        {
          "internalType": "string",
          "name": "seller",
          "type": "string"
        },
        {
          "internalType": "string",
          "name": "ornumber",
          "type": "string"
        },
        {
          "internalType": "string",
          "name": "total",
          "type": "string"
        },
        {
          "internalType": "string",
          "name": "cid",
          "type": "string"
        },
        {
          "internalType": "address",
          "name": "sender",
          "type": "address"
        },
        {
          "internalType": "string",
          "name": "items",
          "type": "string"
        }
      ],
      "stateMutability": "view",
      "type": "function",
      "constant": true
    },
    {
      "inputs": [
        {
          "internalType": "string",
          "name": "_buyer",
          "type": "string"
        },
        {
          "internalType": "string",
          "name": "_seller",
          "type": "string"
        },
        {
          "internalType": "string",
          "name": "_ornumber",
          "type": "string"
        },
        {
          "internalType": "string",
          "name": "_total",
          "type": "string"
        },
        {
          "internalType": "uint256",
          "name": "_date",
          "type": "uint256"
        },
        {
          "internalType": "string",
          "name": "_cid",
          "type": "string"
        },
        {
          "internalType": "address",
          "name": "_sender",
          "type": "address"
        },
        {
          "internalType": "string",
          "name": "_items",
          "type": "string"
        }
      ],
      "name": "addTransaction",
      "outputs": [],
      "stateMutability": "nonpayable",
      "type": "function"
    },
    {
      "inputs": [
        {
          "internalType": "uint256",
          "name": "_index",
          "type": "uint256"
        }
      ],
      "name": "getTransaction",
      "outputs": [
        {
          "internalType": "uint256",
          "name": "id",
          "type": "uint256"
        },
        {
          "internalType": "uint256",
          "name": "date",
          "type": "uint256"
        },
        {
          "internalType": "string",
          "name": "buyer",
          "type": "string"
        },
        {
          "internalType": "string",
          "name": "seller",
          "type": "string"
        },
        {
          "internalType": "string",
          "name": "ornumber",
          "type": "string"
        },
        {
          "internalType": "string",
          "name": "total",
          "type": "string"
        },
        {
          "internalType": "string",
          "name": "cid",
          "type": "string"
        },
        {
          "internalType": "string",
          "name": "items",
          "type": "string"
        }
      ],
      "stateMutability": "view",
      "type": "function",
      "constant": true
    },
    {
      "inputs": [],
      "name": "getAllTransactions",
      "outputs": [
        {
          "components": [
            {
              "internalType": "uint256",
              "name": "id",
              "type": "uint256"
            },
            {
              "internalType": "uint256",
              "name": "date",
              "type": "uint256"
            },
            {
              "internalType": "string",
              "name": "buyer",
              "type": "string"
            },
            {
              "internalType": "string",
              "name": "seller",
              "type": "string"
            },
            {
              "internalType": "string",
              "name": "ornumber",
              "type": "string"
            },
            {
              "internalType": "string",
              "name": "total",
              "type": "string"
            },
            {
              "internalType": "string",
              "name": "cid",
              "type": "string"
            },
            {
              "internalType": "address",
              "name": "sender",
              "type": "address"
            },
            {
              "internalType": "string",
              "name": "items",
              "type": "string"
            }
          ],
          "internalType": "struct Transactions.Transaction[]",
          "name": "",
          "type": "tuple[]"
        }
      ],
      "stateMutability": "view",
      "type": "function",
      "constant": true
    },
    {
      "inputs": [
        {
          "internalType": "uint256",
          "name": "_from",
          "type": "uint256"
        },
        {
          "internalType": "uint256",
          "name": "_to",
          "type": "uint256"
        },
        {
          "internalType": "address",
          "name": "_sender",
          "type": "address"
        }
      ],
      "name": "getTransactionsByDateAndSender",
      "outputs": [
        {
          "components": [
            {
              "internalType": "uint256",
              "name": "id",
              "type": "uint256"
            },
            {
              "internalType": "uint256",
              "name": "date",
              "type": "uint256"
            },
            {
              "internalType": "string",
              "name": "buyer",
              "type": "string"
            },
            {
              "internalType": "string",
              "name": "seller",
              "type": "string"
            },
            {
              "internalType": "string",
              "name": "ornumber",
              "type": "string"
            },
            {
              "internalType": "string",
              "name": "total",
              "type": "string"
            },
            {
              "internalType": "string",
              "name": "cid",
              "type": "string"
            },
            {
              "internalType": "address",
              "name": "sender",
              "type": "address"
            },
            {
              "internalType": "string",
              "name": "items",
              "type": "string"
            }
          ],
          "internalType": "struct Transactions.Transaction[]",
          "name": "",
          "type": "tuple[]"
        }
      ],
      "stateMutability": "view",
      "type": "function",
      "constant": true
    },
    {
      "inputs": [
        {
          "internalType": "address",
          "name": "_sender",
          "type": "address"
        }
      ],
      "name": "getTransactionsBySender",
      "outputs": [
        {
          "components": [
            {
              "internalType": "uint256",
              "name": "id",
              "type": "uint256"
            },
            {
              "internalType": "uint256",
              "name": "date",
              "type": "uint256"
            },
            {
              "internalType": "string",
              "name": "buyer",
              "type": "string"
            },
            {
              "internalType": "string",
              "name": "seller",
              "type": "string"
            },
            {
              "internalType": "string",
              "name": "ornumber",
              "type": "string"
            },
            {
              "internalType": "string",
              "name": "total",
              "type": "string"
            },
            {
              "internalType": "string",
              "name": "cid",
              "type": "string"
            },
            {
              "internalType": "address",
              "name": "sender",
              "type": "address"
            },
            {
              "internalType": "string",
              "name": "items",
              "type": "string"
            }
          ],
          "internalType": "struct Transactions.Transaction[]",
          "name": "",
          "type": "tuple[]"
        }
      ],
      "stateMutability": "view",
      "type": "function",
      "constant": true
    }
  ],
  "bytecode": "0x608060405234801561001057600080fd5b50612994806100206000396000f3fe608060405234801561001057600080fd5b506004361061007d5760003560e01c806333ea3dc81161005b57806333ea3dc8146101005780639ace38c214610137578063eb08ab281461016f578063fd0901221461018d5761007d565b806327506f53146100825780632e7d6ee5146100a057806333b210c0146100d0575b600080fd5b61008a6101a9565b6040516100979190611ee8565b60405180910390f35b6100ba60048036038101906100b59190611f76565b6105df565b6040516100c79190611ee8565b60405180910390f35b6100ea60048036038101906100e59190611fc9565b610cd2565b6040516100f79190611ee8565b60405180910390f35b61011a60048036038101906101159190611ff6565b6112b1565b60405161012e98979695949392919061207c565b60405180910390f35b610151600480360381019061014c9190611ff6565b6116af565b60405161016699989796959493929190612133565b60405180910390f35b610177611a5d565b60405161018491906121ea565b60405180910390f35b6101a760048036038101906101a2919061233a565b611a63565b005b60606000805480602002602001604051908101604052809291908181526020016000905b828210156105d65783829060005260206000209060090201604051806101200160405290816000820154815260200160018201548152602001600282018054610215906124c7565b80601f0160208091040260200160405190810160405280929190818152602001828054610241906124c7565b801561028e5780601f106102635761010080835404028352916020019161028e565b820191906000526020600020905b81548152906001019060200180831161027157829003601f168201915b505050505081526020016003820180546102a7906124c7565b80601f01602080910402602001604051908101604052809291908181526020018280546102d3906124c7565b80156103205780601f106102f557610100808354040283529160200191610320565b820191906000526020600020905b81548152906001019060200180831161030357829003601f168201915b50505050508152602001600482018054610339906124c7565b80601f0160208091040260200160405190810160405280929190818152602001828054610365906124c7565b80156103b25780601f10610387576101008083540402835291602001916103b2565b820191906000526020600020905b81548152906001019060200180831161039557829003601f168201915b505050505081526020016005820180546103cb906124c7565b80601f01602080910402602001604051908101604052809291908181526020018280546103f7906124c7565b80156104445780601f1061041957610100808354040283529160200191610444565b820191906000526020600020905b81548152906001019060200180831161042757829003601f168201915b5050505050815260200160068201805461045d906124c7565b80601f0160208091040260200160405190810160405280929190818152602001828054610489906124c7565b80156104d65780601f106104ab576101008083540402835291602001916104d6565b820191906000526020600020905b8154815290600101906020018083116104b957829003601f168201915b505050505081526020016007820160009054906101000a900473ffffffffffffffffffffffffffffffffffffffff1673ffffffffffffffffffffffffffffffffffffffff1673ffffffffffffffffffffffffffffffffffffffff168152602001600882018054610545906124c7565b80601f0160208091040260200160405190810160405280929190818152602001828054610571906124c7565b80156105be5780601f10610593576101008083540402835291602001916105be565b820191906000526020600020905b8154815290600101906020018083116105a157829003601f168201915b505050505081525050815260200190600101906101cd565b50505050905090565b60606000806201518080876105f49190612556565b6105fe9190612587565b9050600062015180806201517f8861061691906125c9565b6106209190612556565b61062a9190612587565b905060005b600080549050811015610739578260008281548110610651576106506125fd565b5b9060005260206000209060090201600101541015801561069657508160008281548110610681576106806125fd565b5b90600052602060002090600902016001015411155b801561071257508573ffffffffffffffffffffffffffffffffffffffff16600082815481106106c8576106c76125fd565b5b906000526020600020906009020160070160009054906101000a900473ffffffffffffffffffffffffffffffffffffffff1673ffffffffffffffffffffffffffffffffffffffff16145b156107265783806107229061262c565b9450505b80806107319061262c565b91505061062f565b5060008367ffffffffffffffff8111156107565761075561220f565b5b60405190808252806020026020018201604052801561078f57816020015b61077c611bf2565b8152602001906001900390816107745790505b5090506000805b600080549050811015610cc25784600082815481106107b8576107b76125fd565b5b906000526020600020906009020160010154101580156107fd575083600082815481106107e8576107e76125fd565b5b90600052602060002090600902016001015411155b801561087957508773ffffffffffffffffffffffffffffffffffffffff166000828154811061082f5761082e6125fd565b5b906000526020600020906009020160070160009054906101000a900473ffffffffffffffffffffffffffffffffffffffff1673ffffffffffffffffffffffffffffffffffffffff16145b15610caf5760008181548110610892576108916125fd565b5b90600052602060002090600902016040518061012001604052908160008201548152602001600182015481526020016002820180546108d0906124c7565b80601f01602080910402602001604051908101604052809291908181526020018280546108fc906124c7565b80156109495780601f1061091e57610100808354040283529160200191610949565b820191906000526020600020905b81548152906001019060200180831161092c57829003601f168201915b50505050508152602001600382018054610962906124c7565b80601f016020809104026020016040519081016040528092919081815260200182805461098e906124c7565b80156109db5780601f106109b0576101008083540402835291602001916109db565b820191906000526020600020905b8154815290600101906020018083116109be57829003601f168201915b505050505081526020016004820180546109f4906124c7565b80601f0160208091040260200160405190810160405280929190818152602001828054610a20906124c7565b8015610a6d5780601f10610a4257610100808354040283529160200191610a6d565b820191906000526020600020905b815481529060010190602001808311610a5057829003601f168201915b50505050508152602001600582018054610a86906124c7565b80601f0160208091040260200160405190810160405280929190818152602001828054610ab2906124c7565b8015610aff5780601f10610ad457610100808354040283529160200191610aff565b820191906000526020600020905b815481529060010190602001808311610ae257829003601f168201915b50505050508152602001600682018054610b18906124c7565b80601f0160208091040260200160405190810160405280929190818152602001828054610b44906124c7565b8015610b915780601f10610b6657610100808354040283529160200191610b91565b820191906000526020600020905b815481529060010190602001808311610b7457829003601f168201915b505050505081526020016007820160009054906101000a900473ffffffffffffffffffffffffffffffffffffffff1673ffffffffffffffffffffffffffffffffffffffff1673ffffffffffffffffffffffffffffffffffffffff168152602001600882018054610c00906124c7565b80601f0160208091040260200160405190810160405280929190818152602001828054610c2c906124c7565b8015610c795780601f10610c4e57610100808354040283529160200191610c79565b820191906000526020600020905b815481529060010190602001808311610c5c57829003601f168201915b505050505081525050838381518110610c9557610c946125fd565b5b60200260200101819052508180610cab9061262c565b9250505b8080610cba9061262c565b915050610796565b5081955050505050509392505050565b60606000805b600080549050811015610d7f578373ffffffffffffffffffffffffffffffffffffffff1660008281548110610d1057610d0f6125fd565b5b906000526020600020906009020160070160009054906101000a900473ffffffffffffffffffffffffffffffffffffffff1673ffffffffffffffffffffffffffffffffffffffff1603610d6c578180610d689061262c565b9250505b8080610d779061262c565b915050610cd8565b5060008167ffffffffffffffff811115610d9c57610d9b61220f565b5b604051908082528060200260200182016040528015610dd557816020015b610dc2611bf2565b815260200190600190039081610dba5790505b5090506000805b6000805490508110156112a5578573ffffffffffffffffffffffffffffffffffffffff1660008281548110610e1457610e136125fd565b5b906000526020600020906009020160070160009054906101000a900473ffffffffffffffffffffffffffffffffffffffff1673ffffffffffffffffffffffffffffffffffffffff16036112925760008181548110610e7557610e746125fd565b5b9060005260206000209060090201604051806101200160405290816000820154815260200160018201548152602001600282018054610eb3906124c7565b80601f0160208091040260200160405190810160405280929190818152602001828054610edf906124c7565b8015610f2c5780601f10610f0157610100808354040283529160200191610f2c565b820191906000526020600020905b815481529060010190602001808311610f0f57829003601f168201915b50505050508152602001600382018054610f45906124c7565b80601f0160208091040260200160405190810160405280929190818152602001828054610f71906124c7565b8015610fbe5780601f10610f9357610100808354040283529160200191610fbe565b820191906000526020600020905b815481529060010190602001808311610fa157829003601f168201915b50505050508152602001600482018054610fd7906124c7565b80601f0160208091040260200160405190810160405280929190818152602001828054611003906124c7565b80156110505780601f1061102557610100808354040283529160200191611050565b820191906000526020600020905b81548152906001019060200180831161103357829003601f168201915b50505050508152602001600582018054611069906124c7565b80601f0160208091040260200160405190810160405280929190818152602001828054611095906124c7565b80156110e25780601f106110b7576101008083540402835291602001916110e2565b820191906000526020600020905b8154815290600101906020018083116110c557829003601f168201915b505050505081526020016006820180546110fb906124c7565b80601f0160208091040260200160405190810160405280929190818152602001828054611127906124c7565b80156111745780601f1061114957610100808354040283529160200191611174565b820191906000526020600020905b81548152906001019060200180831161115757829003601f168201915b505050505081526020016007820160009054906101000a900473ffffffffffffffffffffffffffffffffffffffff1673ffffffffffffffffffffffffffffffffffffffff1673ffffffffffffffffffffffffffffffffffffffff1681526020016008820180546111e3906124c7565b80601f016020809104026020016040519081016040528092919081815260200182805461120f906124c7565b801561125c5780601f106112315761010080835404028352916020019161125c565b820191906000526020600020905b81548152906001019060200180831161123f57829003601f168201915b505050505081525050838381518110611278576112776125fd565b5b6020026020010181905250818061128e9061262c565b9250505b808061129d9061262c565b915050610ddc565b50819350505050919050565b6000806060806060806060806000805490508910611304576040517f08c379a00000000000000000000000000000000000000000000000000000000081526004016112fb906126c0565b60405180910390fd5b6000808a81548110611319576113186125fd565b5b9060005260206000209060090201905080600001548160010154826002018360030184600401856005018660060187600801858054611357906124c7565b80601f0160208091040260200160405190810160405280929190818152602001828054611383906124c7565b80156113d05780601f106113a5576101008083540402835291602001916113d0565b820191906000526020600020905b8154815290600101906020018083116113b357829003601f168201915b505050505095508480546113e3906124c7565b80601f016020809104026020016040519081016040528092919081815260200182805461140f906124c7565b801561145c5780601f106114315761010080835404028352916020019161145c565b820191906000526020600020905b81548152906001019060200180831161143f57829003601f168201915b5050505050945083805461146f906124c7565b80601f016020809104026020016040519081016040528092919081815260200182805461149b906124c7565b80156114e85780601f106114bd576101008083540402835291602001916114e8565b820191906000526020600020905b8154815290600101906020018083116114cb57829003601f168201915b505050505093508280546114fb906124c7565b80601f0160208091040260200160405190810160405280929190818152602001828054611527906124c7565b80156115745780601f1061154957610100808354040283529160200191611574565b820191906000526020600020905b81548152906001019060200180831161155757829003601f168201915b50505050509250818054611587906124c7565b80601f01602080910402602001604051908101604052809291908181526020018280546115b3906124c7565b80156116005780601f106115d557610100808354040283529160200191611600565b820191906000526020600020905b8154815290600101906020018083116115e357829003601f168201915b50505050509150808054611613906124c7565b80601f016020809104026020016040519081016040528092919081815260200182805461163f906124c7565b801561168c5780601f106116615761010080835404028352916020019161168c565b820191906000526020600020905b81548152906001019060200180831161166f57829003601f168201915b505050505090509850985098509850985098509850985050919395975091939597565b600081815481106116bf57600080fd5b90600052602060002090600902016000915090508060000154908060010154908060020180546116ee906124c7565b80601f016020809104026020016040519081016040528092919081815260200182805461171a906124c7565b80156117675780601f1061173c57610100808354040283529160200191611767565b820191906000526020600020905b81548152906001019060200180831161174a57829003601f168201915b50505050509080600301805461177c906124c7565b80601f01602080910402602001604051908101604052809291908181526020018280546117a8906124c7565b80156117f55780601f106117ca576101008083540402835291602001916117f5565b820191906000526020600020905b8154815290600101906020018083116117d857829003601f168201915b50505050509080600401805461180a906124c7565b80601f0160208091040260200160405190810160405280929190818152602001828054611836906124c7565b80156118835780601f1061185857610100808354040283529160200191611883565b820191906000526020600020905b81548152906001019060200180831161186657829003601f168201915b505050505090806005018054611898906124c7565b80601f01602080910402602001604051908101604052809291908181526020018280546118c4906124c7565b80156119115780601f106118e657610100808354040283529160200191611911565b820191906000526020600020905b8154815290600101906020018083116118f457829003601f168201915b505050505090806006018054611926906124c7565b80601f0160208091040260200160405190810160405280929190818152602001828054611952906124c7565b801561199f5780601f106119745761010080835404028352916020019161199f565b820191906000526020600020905b81548152906001019060200180831161198257829003601f168201915b5050505050908060070160009054906101000a900473ffffffffffffffffffffffffffffffffffffffff16908060080180546119da906124c7565b80601f0160208091040260200160405190810160405280929190818152602001828054611a06906124c7565b8015611a535780601f10611a2857610100808354040283529160200191611a53565b820191906000526020600020905b815481529060010190602001808311611a3657829003601f168201915b5050505050905089565b60015481565b600060016000815480929190611a789061262c565b91905055905060006040518061012001604052808381526020018781526020018b81526020018a81526020018981526020018881526020018681526020018573ffffffffffffffffffffffffffffffffffffffff168152602001848152509050600081908060018154018082558091505060019003906000526020600020906009020160009091909190915060008201518160000155602082015181600101556040820151816002019081611b2d919061288c565b506060820151816003019081611b43919061288c565b506080820151816004019081611b59919061288c565b5060a0820151816005019081611b6f919061288c565b5060c0820151816006019081611b85919061288c565b5060e08201518160070160006101000a81548173ffffffffffffffffffffffffffffffffffffffff021916908373ffffffffffffffffffffffffffffffffffffffff160217905550610100820151816008019081611be3919061288c565b50505050505050505050505050565b60405180610120016040528060008152602001600081526020016060815260200160608152602001606081526020016060815260200160608152602001600073ffffffffffffffffffffffffffffffffffffffff168152602001606081525090565b600081519050919050565b600082825260208201905092915050565b6000819050602082019050919050565b6000819050919050565b611c9381611c80565b82525050565b600081519050919050565b600082825260208201905092915050565b60005b83811015611cd3578082015181840152602081019050611cb8565b60008484015250505050565b6000601f19601f8301169050919050565b6000611cfb82611c99565b611d058185611ca4565b9350611d15818560208601611cb5565b611d1e81611cdf565b840191505092915050565b600073ffffffffffffffffffffffffffffffffffffffff82169050919050565b6000611d5482611d29565b9050919050565b611d6481611d49565b82525050565b600061012083016000830151611d836000860182611c8a565b506020830151611d966020860182611c8a565b5060408301518482036040860152611dae8282611cf0565b91505060608301518482036060860152611dc88282611cf0565b91505060808301518482036080860152611de28282611cf0565b91505060a083015184820360a0860152611dfc8282611cf0565b91505060c083015184820360c0860152611e168282611cf0565b91505060e0830151611e2b60e0860182611d5b565b50610100830151848203610100860152611e458282611cf0565b9150508091505092915050565b6000611e5e8383611d6a565b905092915050565b6000602082019050919050565b6000611e7e82611c54565b611e888185611c5f565b935083602082028501611e9a85611c70565b8060005b85811015611ed65784840389528151611eb78582611e52565b9450611ec283611e66565b925060208a01995050600181019050611e9e565b50829750879550505050505092915050565b60006020820190508181036000830152611f028184611e73565b905092915050565b6000604051905090565b600080fd5b600080fd5b611f2781611c80565b8114611f3257600080fd5b50565b600081359050611f4481611f1e565b92915050565b611f5381611d49565b8114611f5e57600080fd5b50565b600081359050611f7081611f4a565b92915050565b600080600060608486031215611f8f57611f8e611f14565b5b6000611f9d86828701611f35565b9350506020611fae86828701611f35565b9250506040611fbf86828701611f61565b9150509250925092565b600060208284031215611fdf57611fde611f14565b5b6000611fed84828501611f61565b91505092915050565b60006020828403121561200c5761200b611f14565b5b600061201a84828501611f35565b91505092915050565b61202c81611c80565b82525050565b600082825260208201905092915050565b600061204e82611c99565b6120588185612032565b9350612068818560208601611cb5565b61207181611cdf565b840191505092915050565b600061010082019050612092600083018b612023565b61209f602083018a612023565b81810360408301526120b18189612043565b905081810360608301526120c58188612043565b905081810360808301526120d98187612043565b905081810360a08301526120ed8186612043565b905081810360c08301526121018185612043565b905081810360e08301526121158184612043565b90509998505050505050505050565b61212d81611d49565b82525050565b600061012082019050612149600083018c612023565b612156602083018b612023565b8181036040830152612168818a612043565b9050818103606083015261217c8189612043565b905081810360808301526121908188612043565b905081810360a08301526121a48187612043565b905081810360c08301526121b88186612043565b90506121c760e0830185612124565b8181036101008301526121da8184612043565b90509a9950505050505050505050565b60006020820190506121ff6000830184612023565b92915050565b600080fd5b600080fd5b7f4e487b7100000000000000000000000000000000000000000000000000000000600052604160045260246000fd5b61224782611cdf565b810181811067ffffffffffffffff821117156122665761226561220f565b5b80604052505050565b6000612279611f0a565b9050612285828261223e565b919050565b600067ffffffffffffffff8211156122a5576122a461220f565b5b6122ae82611cdf565b9050602081019050919050565b82818337600083830152505050565b60006122dd6122d88461228a565b61226f565b9050828152602081018484840111156122f9576122f861220a565b5b6123048482856122bb565b509392505050565b600082601f83011261232157612320612205565b5b81356123318482602086016122ca565b91505092915050565b600080600080600080600080610100898b03121561235b5761235a611f14565b5b600089013567ffffffffffffffff81111561237957612378611f19565b5b6123858b828c0161230c565b985050602089013567ffffffffffffffff8111156123a6576123a5611f19565b5b6123b28b828c0161230c565b975050604089013567ffffffffffffffff8111156123d3576123d2611f19565b5b6123df8b828c0161230c565b965050606089013567ffffffffffffffff811115612400576123ff611f19565b5b61240c8b828c0161230c565b955050608061241d8b828c01611f35565b94505060a089013567ffffffffffffffff81111561243e5761243d611f19565b5b61244a8b828c0161230c565b93505060c061245b8b828c01611f61565b92505060e089013567ffffffffffffffff81111561247c5761247b611f19565b5b6124888b828c0161230c565b9150509295985092959890939650565b7f4e487b7100000000000000000000000000000000000000000000000000000000600052602260045260246000fd5b600060028204905060018216806124df57607f821691505b6020821081036124f2576124f1612498565b5b50919050565b7f4e487b7100000000000000000000000000000000000000000000000000000000600052601260045260246000fd5b7f4e487b7100000000000000000000000000000000000000000000000000000000600052601160045260246000fd5b600061256182611c80565b915061256c83611c80565b92508261257c5761257b6124f8565b5b828204905092915050565b600061259282611c80565b915061259d83611c80565b92508282026125ab81611c80565b915082820484148315176125c2576125c1612527565b5b5092915050565b60006125d482611c80565b91506125df83611c80565b92508282019050808211156125f7576125f6612527565b5b92915050565b7f4e487b7100000000000000000000000000000000000000000000000000000000600052603260045260246000fd5b600061263782611c80565b91507fffffffffffffffffffffffffffffffffffffffffffffffffffffffffffffffff820361266957612668612527565b5b600182019050919050565b7f5472616e73616374696f6e20696e646578206f7574206f6620626f756e64732e600082015250565b60006126aa602083612032565b91506126b582612674565b602082019050919050565b600060208201905081810360008301526126d98161269d565b9050919050565b60008190508160005260206000209050919050565b60006020601f8301049050919050565b600082821b905092915050565b6000600883026127427fffffffffffffffffffffffffffffffffffffffffffffffffffffffffffffffff82612705565b61274c8683612705565b95508019841693508086168417925050509392505050565b6000819050919050565b600061278961278461277f84611c80565b612764565b611c80565b9050919050565b6000819050919050565b6127a38361276e565b6127b76127af82612790565b848454612712565b825550505050565b600090565b6127cc6127bf565b6127d781848461279a565b505050565b5b818110156127fb576127f06000826127c4565b6001810190506127dd565b5050565b601f82111561284057612811816126e0565b61281a846126f5565b81016020851015612829578190505b61283d612835856126f5565b8301826127dc565b50505b505050565b600082821c905092915050565b600061286360001984600802612845565b1980831691505092915050565b600061287c8383612852565b9150826002028217905092915050565b61289582611c99565b67ffffffffffffffff8111156128ae576128ad61220f565b5b6128b882546124c7565b6128c38282856127ff565b600060209050601f8311600181146128f657600084156128e4578287015190505b6128ee8582612870565b865550612956565b601f198416612904866126e0565b60005b8281101561292c57848901518255600182019150602085019450602081019050612907565b868310156129495784890151612945601f891682612852565b8355505b6001600288020188555050505b50505050505056fea264697066735822122066577882ad92e7b09421c8045aa537ec9450c9673cf2cd346a457bbb5c4f432564736f6c63430008130033",
  "immutableReferences": {},
  "source": "// SPDX-License-Identifier: MIT\r\npragma solidity >=0.5.0 <0.9.0;\r\n\r\ncontract Transactions {\r\n    struct Transaction {\r\n        uint256 id;\r\n        uint256 date;\r\n        string buyer;\r\n        string seller;\r\n        string ornumber;\r\n        string total;\r\n        string cid;\r\n        address sender;\r\n        string items;\r\n    }\r\n\r\n    Transaction[] public transactions;\r\n    uint256 public idCounter;\r\n\r\n    function addTransaction(\r\n        string memory _buyer,\r\n        string memory _seller,\r\n        string memory _ornumber,\r\n        string memory _total,\r\n        uint256 _date,\r\n        string memory _cid,\r\n        address _sender,\r\n        string memory _items\r\n    ) public {\r\n        uint256 _id = idCounter++;\r\n\r\n        Transaction memory newTransaction = Transaction({\r\n            id: _id,\r\n            date: _date,\r\n            buyer: _buyer,\r\n            seller: _seller,\r\n            ornumber: _ornumber,\r\n            total: _total,\r\n            cid: _cid,\r\n            sender: _sender,\r\n            items: _items\r\n        });\r\n\r\n        transactions.push(newTransaction);\r\n    }\r\n\r\n    function getTransaction(\r\n        uint256 _index\r\n    )\r\n        public\r\n        view\r\n        returns (\r\n            uint256 id,\r\n            uint256 date,\r\n            string memory buyer,\r\n            string memory seller,\r\n            string memory ornumber,\r\n            string memory total,\r\n            string memory cid,\r\n            string memory items\r\n        )\r\n    {\r\n        require(\r\n            _index < transactions.length,\r\n            \"Transaction index out of bounds.\"\r\n        );\r\n        Transaction storage transaction = transactions[_index];\r\n\r\n        return (\r\n            transaction.id,\r\n            transaction.date,\r\n            transaction.buyer,\r\n            transaction.seller,\r\n            transaction.ornumber,\r\n            transaction.total,\r\n            transaction.cid,\r\n            transaction.items\r\n        );\r\n    }\r\n\r\n    function getAllTransactions() public view returns (Transaction[] memory) {\r\n        return transactions;\r\n    }\r\n\r\n    function getTransactionsByDateAndSender(\r\n        uint256 _from,\r\n        uint256 _to,\r\n        address _sender\r\n    ) public view returns (Transaction[] memory) {\r\n        uint256 numTransactions = 0;\r\n        uint256 startOfDay = (_from / 86400) * 86400; // Round down to start of day\r\n        uint256 endOfDay = ((_to + 86399) / 86400) * 86400; // Round up to end of day\r\n        for (uint256 i = 0; i < transactions.length; i++) {\r\n            if (\r\n                transactions[i].date >= startOfDay &&\r\n                transactions[i].date <= endOfDay &&\r\n                transactions[i].sender == _sender\r\n            ) {\r\n                numTransactions++;\r\n            }\r\n        }\r\n\r\n        Transaction[] memory result = new Transaction[](numTransactions);\r\n        uint256 index = 0;\r\n        for (uint256 i = 0; i < transactions.length; i++) {\r\n            if (\r\n                transactions[i].date >= startOfDay &&\r\n                transactions[i].date <= endOfDay &&\r\n                transactions[i].sender == _sender\r\n            ) {\r\n                result[index] = transactions[i];\r\n                index++;\r\n            }\r\n        }\r\n\r\n        return result;\r\n    }\r\n\r\n    function getTransactionsBySender(\r\n        address _sender\r\n    ) public view returns (Transaction[] memory) {\r\n        uint256 numTransactions = 0;\r\n        for (uint256 i = 0; i < transactions.length; i++) {\r\n            if (transactions[i].sender == _sender) {\r\n                numTransactions++;\r\n            }\r\n        }\r\n\r\n        Transaction[] memory result = new Transaction[](numTransactions);\r\n        uint256 index = 0;\r\n        for (uint256 i = 0; i < transactions.length; i++) {\r\n            if (transactions[i].sender == _sender) {\r\n                result[index] = transactions[i];\r\n                index++;\r\n            }\r\n        }\r\n\r\n        return result;\r\n    }\r\n}",
  "sourcePath": "C:\\Users\\feljo\\Desktop\\github\\Thesis\\contracts\\Transactions.sol",
  "compiler": {
    "name": "solc",
    "version": "0.8.19+commit.7dd6d404.Emscripten.clang"
  },
  "schemaVersion": "3.4.13",
  "updatedAt": "2023-05-09T12:21:14.248Z",
  "networkType": "ethereum",
  "devdoc": {
    "kind": "dev",
    "methods": {},
    "version": 1
  },
  "userdoc": {
    "kind": "user",
    "methods": {},
    "version": 1
  }
}